:0430000051EF18F084
:10300800FACF12F0FBCF13F0E9CF14F034EF1AF037
:10301800D8CF01F0E8CF02F0E0CF03F0FACF04F008
:10302800FBCF05F0E9CF06F0EACF07F0E1CF08F0D3
:10303800E2CF09F0D9CF0AF0DACF0BF0F3CF0CF0DA
:10304800F4CF0DF0F6CF0EF0F7CF0FF0F8CF10F069
:10305800F5CF11F011C0F5FF10C0F8FF0FC0F7FF52
:103068000EC0F6FF0DC0F4FF0CC0F3FF0BC0DAFF73
:103078000AC0D9FF09C0E2FF08C0E1FF07C0EAFFA4
:1030880006C0E9FF05C0FBFF04C0FAFF03C0E0FF6C
:1030980002C0E8FF01C0D8FF1000A5EF1AF0010E2A
:1030A800256E000E216E2F0E206E88EC1AF0000E91
:1030B800216E350E206E88EC1AF0000E216E3B0E44
:1030C800206E88EC1AF0000E946E938E060EAF6E8A
:1030D800000EB06E640EAC6EC00EAB6E64D025C030
:1030E800ADFF000E0001696F2F0E0001686F000E22
:1030F80000016B6F100E00016A6F000E00016D6F0A
:10310800210E00016C6F000E00016F6F320E00017E
:103118006E6F000ED6EC19F0000E0001696F350EC7
:103128000001686F000E00016B6F240E00016A6FCA
:10313800000E00016D6F250E00016C6F000E00017E
:103148006F6F260E00016E6F030ED6EC19F0000E9D
:103158000001696F3B0E0001686F000E00016B6F84
:10316800480E00016A6F000E00016D6F490E0001E4
:103178006C6F000E00016F6F4A0E00016E6F060E35
:10318800D6EC19F0F0EC18F0000E216E050E206E4A
:1031980067EC1AF0000E216E050E206E67EC1AF02F
:1031A800252A1F0E251680B69AD7000E266E000E09
:1031B800276E000E286E000E296E000E2A6E000E75
:1031C8002B6E000E2C6E000E2D6E000E2E6EF0EC87
:1031D80018F0FF0051EF18F0260EE96E000EEA6EA7
:1031E800090E8B8400F000F000F0EFAE8B9400F035
:1031F80000F000F000F08B9400F000F000F000F018
:103208008B8400F000F000F0EFAC8B9400F000F03D
:1032180000F000F08B9400F000F000F000F08B84D8
:1032280000F000F000F0EFAA8B9400F000F000F03E
:1032380000F08B9400F000F000F000F08B8400F0B8
:1032480000F000F0EFA88B9400F000F000F000F020
:103258008B9400F000F000F000F08B8400F000F098
:1032680000F0EFA68B9400F000F000F000F08B94D3
:1032780000F000F000F000F08B8400F000F000F0A7
:10328800EFA48B9400F000F000F000F08B9400F0B5
:1032980000F000F000F08B8400F000F000F0EFA2E6
:1032A8008B9400F000F000F000F08B9400F000F038
:1032B80000F000F08B8400F000F000F0EFA08B9499
:1032C80000F000F000F000F08B94E92AE82E89D78E
:1032D800120020C0D9FF21C0DAFF2250DE26235079
:1032E800DD2220C0D9FF21C0DAFFDECF60F0DDCFBC
:1032F80061F0000E0001605D800E6159D8A022D0F7
:1033080020C0D9FF21C0DAFFDECF60F0DDCF61F049
:10331800070E0001626F0001D8906133603300012D
:10332800622FF9D70001601F611F604B612BFF0EF0
:10333800000160250001636F000E0001612100019A
:10334800646F16D020C0D9FF21C0DAFFDECF60F04D
:10335800DDCF61F0070E0001626F0001D890613384
:1033680060330001622FF9D760C063F061C064F078
:1033780063C067F0810E0001675DD8B007D0000E0A
:103388000001666F000E0001656F09D0800E000114
:1033980067250001656F0001666BFF0E662300015B
:1033A80065511200246E000169C021F0000168C057
:1033B80020F06AC022F06BC023F06DEC19F0000118
:1033C800706F260E2424D96EDA6A000EDA2270C0D5
:1033D800DFFF020E00016825206E000E0001692142
:1033E800216E6CC022F06DC023F06DEC19F0000165
:1033F800706F24500001716F726B010E000171270C
:10340800000E7223260E00017125D96E000E0001F0
:103418007221DA6E70C0DFFF040E00016825206E8D
:10342800000E00016921216E6EC022F06FC023F0EA
:103438006DEC19F00001706F24500001716F726B10
:10344800020E00017127000E7223260E000171255D
:10345800D96E000E00017221DA6E70C0DFFF120013
:10346800EACF15F0E1CF16F0E2CF17F0D9CF18F078
:10347800DACF19F0F3CF1AF0F4CF1BF0F6CF1CF027
:10348800F7CF1DF0F8CF1EF0F5CF1FF01FC0F5FFE6
:103498001EC0F8FF1DC0F7FF1CC0F6FF1BC0F4FFDD
:1034A8001AC0F3FF19C0DAFF18C0D9FF17C0E2FF2E
:1034B80016C0E1FF15C0EAFF14C0E9FF13C0FBFF07
:1034C80012C0FAFF110017D0020E236EEE0E226E04
:1034D8000AD000F000F000F000F000F000F000F07A
:1034E80000F000F000F02206D8A023062228D8B465
:1034F8002328D8A4EED72006D8A021062028D8B49F
:103508002128D8B41200E0D720C0D9FF21C0DAFFA3
:10351800000EDE6E000EDD6E20EE02F02050D92681
:103528002150DA22000EDE6E000EDD6E20EE04F071
:103538002050D9262150DA22000EDE6E000EDD6EF4
:10354800120000EE26F01B0EEE6AE806FDE100010F
:0435580053EF18F025
:00000001FF
