:041000003FEF08F0C6
:10100800FACF23F0FBCF24F0E9CF25F0EACF26F082
:10101800E1CF27F0E2CF28F0D9CF29F0DACF2AF0B4
:10102800F3CF2BF0F4CF2CF0F6CF2DF0F7CF2EF036
:10103800F8CF2FF0F5CF30F0D1EC0DF030C0F5FF40
:101048002FC0F8FF2EC0F7FF2DC0F6FF2CC0F4FF0D
:101058002BC0F3FF2AC0DAFF29C0D9FF28C0E2FF5E
:1010680027C0E1FF26C0EAFF25C0E9FF24C0FBFF37
:0A10780023C0FAFF110070EF17F01B
:1011000000C31109113D116B1134034D00690063D7
:101110000072006F006300680069007000200054D6
:10112000006500630068006E006F006C006F006770
:10113000007900200049006E0063002E002E03534A
:101140000069006D0070006C0065002000480049D7
:1011500000440020004400650076006900630065DB
:10116000002000440065006D006F000902290001A5
:101170000100C0320904000002030000000921112F
:10118000010001221D000705810340000107050140
:10119000034000010600FF0901A1011901294015C2
:1011A0000026FF0075089540810019012940910033
:1011B000C01201000200000008D8043F0000010135
:1011C000020001040309040002012205D8A411D081
:1011D000020120511F0B0009D8A40BD000017D8F04
:1011E00002012151030AD8A402D0010E01D0000E41
:1011F0003E6E020122671200020120511F0B020AFB
:10120000D8A41200020124510F0B0009D8B4120017
:10121000020124510F0B176E020E175CD8B012009A
:1012200000017951200AD8A4120000017D8F02012B
:1012300024BF1FD0020124510F0B176E1750020D4F
:1012400000016C0EF324D96E0001000EF420DA6E5A
:10125000DECF1DF0DDCF1EF0020124510F0B176E03
:101260001750010D0001760EF324D96E0001000E17
:101270001ED0020124510F0B176E1750020D0001F2
:10128000680EF324D96E0001000EF420DA6EDECF72
:101290001DF0DDCF1EF0020124510F0B176E175009
:1012A000010D0001740EF324D96E0001000EF4202C
:1012B000DA6EDF501C6E1CB006D0FB0E1D141D6EC6
:1012C000FF0E1E1404D0040E1D101D6E1E501E6E47
:1012D000020124BF0DD0020124510F0B176E1750CD
:1012E000020D00016C0EF324D96E0001000E0CD02B
:1012F000020124510F0B176E1750020D0001680EEA
:10130000F324D96E0001000EF420DA6E1DC0DEFF5A
:101310001EC0DDFF02012151030AD8A433D01DC035
:10132000D9FF1EC0DAFFDFAE20D0020124BF0DD0EE
:10133000020124510F0B176E1750010D0001760E9C
:10134000F324D96E0001000E0CD0020124510F0BC2
:10135000176E1750010D0001740EF324D96E0001B1
:10136000000EF420DA6E0001DF821DC0D9FF1EC01E
:10137000DAFF000EDB841DC0D9FF1EC0DAFF000EAD
:10138000DB8E1200040E1D181D6E1E501E6E1DC039
:10139000D9FF1EC0DAFFDFAE1BD01DC0D9FF1EC0B3
:1013A000DAFF7F0EDF161DC0D9FF1EC0DAFF000E68
:1013B000DB8C000E106E050E0F6E1EC012F01DC0ED
:1013C00011F0000E146E020E136EFDEC14F006D038
:1013D0001DC0D9FF1EC0DAFF000EDB8C040E1D18E5
:1013E0001D6E1E501E6E1CB206D01DC0D9FF1EC041
:1013F000DAFFDFAE35D0020124BF0DD00201245147
:101400000F0B176E1750010D0001760EF324D96EE5
:101410000001000E0CD0020124510F0B176E175063
:10142000010D0001740EF324D96E0001000EF420AA
:10143000DA6E0001DF921DC0D9FF1EC0DAFF3B0E3D
:10144000DF16000E106E050E0F6E1EC012F01DC0CE
:1014500011F0000E146E020E136EFDEC14F006D0A7
:101460001DC0D9FF1EC0DAFF3B0EDF16020124515A
:101470000F0B176E1750010D530E186E0F0E196ECD
:10148000F3501826F450192218C01AF019C01BF096
:101490001AC0D9FF1BC0DAFFFE0EDF161200A0949F
:1014A000000E0F015F6F000E626E000E0F01536F92
:1014B0000F010F0E0001816F0F01540E0001806FAC
:1014C000000E0001836F000E0001826F000E00010C
:1014D000856F010E0001846F8FEC16F0160E616EA1
:1014E0009F0E0F015B6F7B0E606E000E0001886F18
:1014F00011D000018851040D0201000EF324D96EB1
:101500000201020EF420DA6EDE6ADE6ADE6ADD6A4D
:101510000001882B070E00018865EBD7648C000E54
:101520000F015C6F6498649C6296000E00017D6FF1
:10153000000E0001636F000E0001656F000E0001D8
:10154000646F62B6F1D7010E436E010E446E000E59
:10155000406E000E416E000E3F6E000E0001886F5F
:101560003AD000018851020D0001680EF324D96EB3
:101570000001000EF420DA6E000EDE6E000EDD6E4D
:1015800000018851020D00016C0EF324D96E000198
:10159000000EF420DA6E000EDE6E000EDD6E00012D
:1015A0008851010D0001740EF324D96E0001000E64
:1015B000F420DA6E000EDF6E00018851010D00018B
:1015C000760EF324D96E0001000EF420DA6E000EC0
:1015D000DF6E0001882B010E00018865C2D7020171
:1015E000020E0001696F0201080E0001686F160EFD
:1015F0000F01536F020E0201036F200E0201026FF2
:10160000080E0201016F040E0201006F0201008F3B
:10161000000E4A6E000E316E000E326E000E336EFA
:10162000000E346E000E466E000E0001796F12003F
:10163000A094000E0F015F6F000E626E000E0F018E
:10164000536F0F010F0E026E0F01540E016E000E4C
:10165000046E000E036E000E066E010E056E45EC64
:1016600017F0160E616E9F0E0F015B6F7B0E606EA2
:10167000000E096E0FD00950040D0201000EF32474
:10168000D96E0201020EF420DA6EDE6ADE6ADE6ACC
:10169000DD6A092A070E0964EED7648C000E0F017B
:1016A0005C6F6498649C6296000E00017D6F000E72
:1016B0000001636F000E0001656F000E0001646F92
:1016C00062B6F1D7010E436E010E446E000E406EFD
:1016D000000E416E000E3F6E000E096E35D00950AF
:1016E000020D0001680EF324D96E0001000EF420F3
:1016F000DA6E000EDE6E000EDD6E0950020D000186
:101700006C0EF324D96E0001000EF420DA6E000E88
:10171000DE6E000EDD6E0950010D0001740EF32423
:10172000D96E0001000EF420DA6E000EDF6E095053
:10173000010D0001760EF324D96E0001000EF42095
:10174000DA6E000EDF6E092A010E0964C8D70201A5
:10175000020E0001696F0201080E0001686F160E8B
:101760000F01536F020E0201036F200E0201026F80
:10177000080E0201016F040E0201006F0201008FCA
:10178000000E4A6E000E316E000E326E000E336E89
:10179000000E346E000E466E000E0001796F1200CE
:1017A000200E0001795DD8B064B2120000017351BF
:1017B0007211D8B481D072C0D9FF73C0DAFFDF5084
:1017C00000018E6F00018EBF120076D01FEC13F067
:1017D00084D0010E0001786F80D00001715170112A
:1017E000D8B40AD070C0D9FF71C0DAFFDF50000151
:1017F0008E6F00018EBF71D0810E0201A06F010EAD
:101800005BEC17F00009D8A402D0010E01D0000E45
:101810000201A16F010E0001806F0201020E0001A2
:10182000826F0201A00E0001816F400E0001836FE4
:10183000010E85EC0CF039D0000171517011D8B453
:101840000AD070C0D9FF71C0DAFFDF5000018E6F7F
:1018500000018EBF42D00A0E3CEC15F0000180C0A2
:1018600091F0000181C092F0370E0201A06F91C08B
:10187000A1F2000192C08EF08EC08FF00001906B3B
:1018800000018F510201A26F010E0001806F020161
:10189000020E0001826F0201A00E0001816F400E56
:1018A0000001836F010E85EC0CF0000180C070F028
:1018B000000181C071F011D002016051370AD8B423
:1018C000BBD7B70AD8B409D0010AD8B486D7030A5F
:1018D000D8B47FD7120AD8B479D7000E0001806F30
:1018E0000201020E0001826F0201600E0001816F91
:1018F000400E0001836F010E85EC0CF0000180C0EA
:1019000072F0000181C073F012000001866F0001C7
:101910008051D8B40AD000018651020D0001680E32
:10192000F324D96E0001000E09D000018651020D8A
:1019300000016C0EF324D96E0001000EF420DA6E63
:101940000001DECF87F00001DDCF88F00001885173
:101950008711D8A407D0000E0001816F000E00018E
:10196000806F1200000120EE02F000018751D9269D
:1019700000018851DA22000181C0DEFF000182C02F
:10198000DDFF000120EE01F000018751D9260001A2
:101990008851DA22000183C0DFFF87C0D9FF88C0E9
:1019A000DAFF400EDF1687C0D9FF88C0DAFF000ECD
:1019B000DB8687C0D9FF88C0DAFF000EDB8E00010E
:1019C0008051D8B41ED000018651020D0001680E6E
:1019D000F324D96E0001000EF420DA6EDECF84F01D
:1019E000DDCF85F0040E0001841B000E851B000175
:1019F0008651020D0001680EF324D96E0001000E1D
:101A00001DD000018651020D00016C0EF324D96E29
:101A10000001000EF420DA6EDECF84F0DDCF85F019
:101A2000040E0001841B000E851B00018651020D6F
:101A300000016C0EF324D96E0001000EF420DA6E62
:101A400084C0DEFF85C0DDFF000188C081F0000199
:101A500087C080F0120002012051800AD8A4120031
:101A6000C00E00017D6F91D0110E00017B6FB10E91
:101A700000017A6F000E00017F6F120E00017E6F71
:101A800012000201226746D002012251020D070E08
:101A9000F324F66E110EF420F76E09000001F5CF65
:101AA0007AF00A000001F5CF7BF0020E00017A25E2
:101AB000016E000E00017B21026E01C0F6FF02C024
:101AC000F7FFF86A020EF76403D00800F55005D05E
:101AD000F6CFE9FFF7CFEAFFEF5000017E6F030E6C
:101AE00000017A25016E000E00017B21026E01C00B
:101AF000F6FF02C0F7FFF86A020EF76403D0080091
:101B0000F55005D0F6CFE9FFF7CFEAFFEF5000011F
:101B10007F6F1200000E00017D6F1200030E0201A4
:101B2000225DD8B02AD002012251020D010EF32409
:101B3000F66E110EF420F76E09000001F5CF7AF071
:101B40000A000001F5CF7BF000017AC0F6FF00012A
:101B50007BC0F7FFF86A020EF76403D00800F55067
:101B600005D0F6CFE9FFF7CFEAFFEF50016E015045
:101B700000017E6F00017F6B1200000E00017D6F7F
:101B80001200000E00017D6F120002012351010AB4
:101B9000D8B46AD7030AD8B474D7010AD8B4BED768
:101BA000F0D700017905D8B464BA07D0000E626E90
:101BB00060806088020E0001796F62B460A403D077
:101BC000629416EC17F064A202D0A194120062B0E5
:101BD00060A007D018EC0BF0A084040E0001796F10
:101BE000629062B860A802D02FEC17F062AC1AD0F5
:101BF00060AC0ED0000E106E730E0F6E000E126EE3
:101C0000000E116E000E146E010E136EFDEC14F03A
:101C1000629C9FEC17F04550D8A44506456602D05B
:101C2000BDEC12F062BA60AA02D0BBEC15F062B251
:101C300060A210D07F0E106E0F68000E126E000EA4
:101C4000116E000E146E010E136EFDEC14F0000EFA
:101C50000F015F6F040E0001795DD8B002D0A1942E
:101C6000120060A63BD0000E226E35D062A636D0A0
:101C700063CF4CF04C30E832E8320F0B486E62967E
:101C80004CB409D04850010D0001760EF324D96EF2
:101C90000001000E08D04850010D0001740EF3241D
:101CA000D96E0001000EF420DA6E0001DF70486684
:101CB00003D0CBEC13F00ED0000E106E720E0F6E30
:101CC000000E126E4C0E116E000E146E000E136E8E
:101CD000FDEC14F0222A030E2264C8D7A19412004E
:101CE00020EE01F03750D9263850DA22DF50026E4C
:101CF00002500001645D000E00016559D8A064C067
:101D000002F002500001645F000E0001655B000EEE
:101D1000016E14D00150010D0201280EF324D96E7A
:101D20000201020EF420DA6E60C0E1FF61C0E2FF42
:101D3000DFCFE7FF0001604B612B012A0250015CFD
:101D4000D8A0E8D7000165516411D8B432D020EE94
:101D500001F03950D9263A50DA22080EDF6E20EE13
:101D600002F03950D9263A50DA22280EDE6E020EE1
:101D7000DD6E37C0D9FF38C0DAFFDFBC0DD039C007
:101D8000D9FF3AC0DAFF480EDF6E39C0D9FF3AC03A
:101D9000DAFF000EDB8E120039C0D9FF3AC0DAFF3D
:101DA000080EDF6E39C0D9FF3AC0DAFF000EDB8EB5
:101DB000120020EE01F03950D9263A50DA22080EEE
:101DC000DF6E20EE02F03950D9263A50DA22200E8A
:101DD000DE6E020EDD6E39C0D9FF3AC0DAFF040EA6
:101DE000DF6E39C0D9FF3AC0DAFF000EDB8E00018A
:101DF000639F42661200BDEC12F01200076E0150A4
:101E0000D8B409D00750020D0001680EF324D96E32
:101E10000001000E08D00750020D00016C0EF324E3
:101E2000D96E0001000EF420DA6EDECF08F0DDCFAF
:101E300009F009500810D8A405D0000E026E000E5B
:101E4000016E120020EE02F00850D9260950DA2265
:101E500002C0DEFF03C0DDFF20EE01F00850D926EE
:101E60000950DA2204C0DFFF08C0D9FF09C0DAFF39
:101E7000400EDF1608C0D9FF09C0DAFF000EDB866E
:101E800008C0D9FF09C0DAFF000EDB8E0150D8B4BC
:101E90001BD00750020D0001680EF324D96E00011B
:101EA000000EF420DA6EDECF05F0DDCF06F0040E72
:101EB000051A000E061A0750020D0001680EF324E1
:101EC000D96E0001000E1AD00750020D00016C0EF1
:101ED000F324D96E0001000EF420DA6EDECF05F097
:101EE000DDCF06F0040E051A000E061A0750020D8B
:101EF00000016C0EF324D96E0001000EF420DA6E9E
:101F000005C0DEFF06C0DDFF09C002F008C001F019
:101F10001200020120511F0B016E0104D8A412000F
:101F200002012451D8A4120002012151060AD8B49A
:101F30001FD027D04A04D8A424D0110E00017B6FF3
:101F40007D0E00017A6F000E00017F6F090E0AD02E
:101F5000110E00017B6F940E00017A6F000E0001DC
:101F60007F6F1D0E00017E6FC00E00017D6F09D0D6
:101F700002012351210AD8B4DDD7030AD8B4E8D727
:101F8000010A02012039E832030B016E0104D8A4D2
:101F900012002CD0000E00017B6F4E0E00017A6FF4
:101FA000000E00017F6F010E00017E6FC10E000167
:101FB0007D6F1200800E00017D6F23C24EF0120073
:101FC000000E00017B6F4D0E00017A6F000E0001C4
:101FD0007F6F010E00017E6F810E00017D6F120088
:101FE000800E00017D6F22C24DF0120002012151CE
:101FF000010AD8B41200030AD8B4CCD7010AD8B465
:10200000DFD70A0AD8B41200030AD8B4D3D7010A1A
:10201000D8A41200E5D702012039E832030B0009E9
:10202000D8A4120055D000017D8F080E0001796FF1
:1020300012002BEC0DF012008AEC10F01200000ED2
:1020400000017B6F4A0E00017A6F00017D81010E55
:1020500000017E6F00017D8F12005AEC12F0120019
:10206000E4EC08F0120002012451010D4B0E1F6E2A
:10207000000E206EF3501F26F45020221FC07AF06D
:1020800020C07BF000017D81010E00017E6F000108
:102090007D8F120000017D8F02012451010D4B0E36
:1020A000F324D96E000EF420DA6E020122C2DFFFA3
:1020B0001200000E106E020E0F6E000E126E000E59
:1020C000116E000E146E000E136EFDEC14F0120073
:1020D00002012151000AD8B4C0D7010AD8B4C0D730
:1020E000020AD8B4BDD7060AD8B49DD7030AD8B41B
:1020F000A0D7010AD8B4DDD70F0AD8B4A0D7010AF7
:10210000D8B49AD7030AD8B4AED7010AD8B4C2D784
:10211000070A120000017D8F0F010F0E026E0F01E2
:10212000540E016E000E046E000E036E000E066E5D
:10213000010E056E45EC17F00201020E026E02015F
:10214000000E016E000E046E000E036E000E066E91
:10215000200E056E45EC17F0648C000E176E19D03A
:102160001750010D0001740EF324D96E0001000E0A
:10217000F420DA6E000EDF6E1750010D0001760EAE
:10218000F324D96E0001000EF420DA6E000EDF6E2B
:10219000172A010E1764E4D7000E026E4B0E016E73
:1021A000000E046E000E036E000E066E010E056E2C
:1021B00045EC17F0649C0201020E0001696F0201F8
:1021C000080E0001686F0201020E386E0201000E57
:1021D000376E38C03AF037C039F022C24AF04A664A
:1021E00004D0100E0001796F1200000E106E010E67
:1021F0000F6E000E126E4A0E116E000E146E010E5E
:10220000136EFDEC14F0200E0001796F120064983B
:1022100000017DBF39D0000163AF0BD0020E476EC5
:10222000416602D01DEC14F0000E446E000E436EA9
:10223000120020EE01F03950D9263A50DA22080E69
:10224000DF6E20EE02F03950D9263A50DA22200E05
:10225000DE6E020EDD6E39C0D9FF3AC0DAFF0C0E19
:10226000DF6E39C0D9FF3AC0DAFF000EDB8E68C0DE
:10227000D9FF69C0DAFF040EDF6E68C0D9FF69C0FC
:10228000DAFF000EDB8E1200020120AF0FD0010E2C
:10229000476E406602D01DEC14F0000E446E000E36
:1022A000436E42661200BDEC12F01200020E476E41
:1022B00020EE01F03950D9263A50DA22080EDF6EAE
:1022C00020EE02F03950D9263A50DA22200EDE6E86
:1022D000020EDD6E39C0D9FF3AC0DAFF040EDF6EA0
:1022E00039C0D9FF3AC0DAFF000EDB8E000E446E13
:1022F000000E436E42661200BDEC12F01200080E92
:10230000016E080E00017E5D000E00017F59D8B0FD
:102310000BD07EC001F0496602D0010E04D0490402
:10232000D8A402D0020E496E015000017E5F000E5B
:1023300000017F5B000120EE01F000016851D92609
:1023400000016951DA2201C0DFFF0201020E3C6E7A
:102350000201280E3B6E00017DA11ED03DD0000180
:102360007AC0F6FF00017BC0F7FFF86A3BC0D9FFD7
:102370003CC0DAFF020EF76403D00800F55005D028
:10238000F6CFE9FFF7CFEAFFEF50DF6E00017A4B9F
:102390007B2B3B4A3C2A01060166E1D71200000173
:1023A0007AC0F6FF00017BC0F7FFF86A3BC0D9FF97
:1023B0003CC0DAFF020EF76403D00800F55005D0E8
:1023C000F6CFE9FFF7CFEAFFEF50DF6E00017A4B5F
:1023D0007B2B3B4A3C2A01060166E1D7120068C00C
:1023E000D9FF69C0DAFF000EDFBC010E026E040ED9
:1023F000000168190001686F000169510001696FEF
:1024000000017951080AD8A40ED0020122517F0B95
:102410000F015C6F0F015C51D8B402D0100E01D0D7
:10242000040E0001796F4704D8A43CD0000120EECF
:1024300002F000016851D92600016951DA22280E04
:10244000DE6E020EDD6E7FEC11F04950020AD8A458
:102450000DD068C0D9FF69C0DAFF040EDF6E68C016
:10246000D9FF69C0DAFF000EDB8E120002660DD0C4
:1024700068C0D9FF69C0DAFF480EDF6E68C0D9FFB7
:1024800069C0DAFF000EDB8E120068C0D9FF69C098
:10249000DAFF080EDF6E68C0D9FF69C0DAFF000EF0
:1024A000DB8E1200000163AF02D00001639F000EBB
:1024B000476E1200000E0201286F000E0201296F04
:1024C0003FD000017D8F3E04D8A446D0020128836E
:1024D00043D000017D8F40D000017D8F020124BFD9
:1024E0000DD0020124510F0B016E0150020D0001AD
:1024F0006C0EF324D96E0001000E0CD002012451A1
:102500000F0B016E0150020D0001680EF324D96E0D
:102510000001000EF420DA6EDECF02F0DDCF03F012
:1025200002C0D9FF03C0DAFFDFAE16D002C0D9FF68
:1025300003C0DAFFDFA410D0010E0201286F0CD017
:10254000020120511F0B000AD8B4BBD7010AD8B42E
:10255000C0D7030AD8B4C0D700017DAF1200020172
:10256000020E00017B6F0201280E00017A6F00014C
:102570007D81020E00017E6F120043661200010E83
:10258000436E44661200010E446E4750020AD8A4FE
:1025900018D0000120EE01F000016851D926000199
:1025A0006951DA22000EDF6E68C0D9FF69C0DAFF18
:1025B000480EDF6E68C0D9FF69C0DAFF000EDB8EFF
:1025C00012004704D8A41200000E3D6E20EE01F068
:1025D0003750D9263850DA22080EDF6E20EE02F08E
:1025E0003750D9263850DA22200EDE6E020EDD6E0C
:1025F00037C0D9FF38C0DAFF040EDF6E37C0D9FF0D
:1026000038C0DAFF000EDB8E010E3D6E20EE01F0C9
:102610003950D9263A50DA22080EDF6E20EE02F049
:102620003950D9263A50DA22200EDE6E020EDD6EC7
:1026300039C0D9FF3AC0DAFF800EDF6E1200900E6B
:102640000201A06F020161A103D0020E38EC16F066
:10265000020161A303D0010E0001786F00017151E6
:102660007011D8B40AD070C0D9FF71C0DAFFDF5042
:102670000001896F000189BF21D0010E5BEC17F0CA
:102680000009D8A402D0010E01D0000E0201A16FF2
:102690000A0E3CEC15F0000180C08CF0000181C0F6
:1026A0008DF08CC0A2F200018DC089F089C08AF043
:1026B00000018B6B00018A510201A36F010E000122
:1026C000806F0201020E0001826F0201A00E000164
:1026D000816F400E0001836F010E85EC0CF000014C
:1026E00080C070F0000181C071F01200000E496ED0
:1026F000000E426E000E406E000E416E000E3D6EEA
:10270000000E476E68C0D9FF69C0DAFF7F0EDF1682
:10271000040E000168190001686F00016951000191
:10272000696F68C0D9FF69C0DAFF7F0EDF16040E3B
:10273000000168190001686F000169510001696FAB
:1027400039C0D9FF3AC0DAFF7F0EDF16000E000154
:102750007D6F000E00017F6F000E00017E6F000E86
:102760000001636F000E0001656F000E0001646FD1
:102770000BEC10F0000E106E030E0F6E000E126EBA
:10278000000E116E000E146E000E136EFDEC14F0B0
:1027900007EC11F012002D0E456E4CC021F0FD0E1D
:1027A0002116D8A43FD04CC021F0D89021323F0E42
:1027B00021162150040D0201000EF324376E020190
:1027C000020EF420386E38C03AF037C039F0040EEB
:1027D0003918396E3A503A6E37C0D9FF38C0DAFF2F
:1027E000DF30E8320F0B0D0AD8A419D00201020E17
:1027F000026E0201200E016E20EE02F03750D92643
:102800003850DA22DECF03F0DDCF04F0000E066E82
:10281000080E056EDCEC15F076EC13F012006AEC95
:1028200015F012004CC021F0FD0E21162150040AB3
:10283000D8A41200EFEC11F01200000E406E000E52
:10284000416E4750020AD8A41FD020EE01F0395043
:10285000D9263A50DA22080EDF6E20EE02F0395007
:10286000D9263A50DA22280EDE6E020EDD6E39C00D
:10287000D9FF3AC0DAFF480EDF6E39C0D9FF3AC03F
:10288000DAFF000EDB8E120000017E510201265D90
:1028900000017F5102012759D8B004D026C27EF032
:1028A00027C27FF07FEC11F0000120EE02F0000162
:1028B0006851D92600016951DA22280EDE6E020E17
:1028C000DD6E68C0D9FF69C0DAFF480EDF6E68C0F0
:1028D000D9FF69C0DAFF000EDB8E1200066E02011E
:1028E000020E086E0201000E076E0150026E036AAE
:1028F000D890023603360650046E056AD890043626
:102900000536D890043605360250042603500522B9
:10291000D89004360536D89004360536045007267C
:102920000550082207C0D9FF08C0DAFFDF9E016604
:1029300009D00650020D00016C0EF324D96E00017F
:10294000000E08D00650020D0001680EF324D96E67
:102950000001000EF420DA6E07C0DEFF08C0DDFFC4
:1029600007C0D9FF08C0DAFFDF9C20EE04F0075053
:10297000D9260850DA22DF8C120064A235D0010E6D
:10298000E1EC16F0120035043610D8A404D0010E84
:10299000C6EC16F02FD035504B0A3610D8A404D010
:1029A000010EE1EC16F026D0970E355C000E14D027
:1029B00035043610D8A404D0010EC6EC16F01AD097
:1029C0003550320A3610D8A404D0010EE1EC16F0CE
:1029D00011D0B70E355C030E3658D8A00BD0000EC0
:1029E000366E000E356E06D000017951200AD8B43B
:1029F000CAD7DED7354A362A120015D0BDEC14F0FE
:102A00001200BDEC14F0010E55EC16F01200BDECF6
:102A100014F0020E55EC16F0120072EC16F01200D3
:102A200089EC0FF012000FC015F010C016F0165010
:102A3000000AD8B404D07F0AD8A412001AD01550C6
:102A4000010AD8B4EAD7030AD8B41200010AD8B4EC
:102A5000E7D7060AD8B41200770AD8B41200010AE0
:102A6000D8B4CCD7070AD8B4D2D7010AD8A4120058
:102A7000C8D71550FF0A12000001856F05D000016C
:102A80008069000181691200000185510A0AD8A4F9
:102A9000F6D785C082F0000182478247C25000010C
:102AA0008219C30B8219C26EC282C2B2FED7000164
:102AB000C4CF83F00001846B000183510001846F57
:102AC0000001836BC3500001831383C080F084C076
:102AD00081F012004750020AD8A403D070EC0EF027
:102AE0001200000E476E3D661FD020EE01F03950F7
:102AF000D9263A50DA22080EDF6E20EE02F0395065
:102B0000D9263A50DA22200EDE6E020EDD6E39C072
:102B1000D9FF3AC0DAFF0C0EDF6E39C0D9FF3AC0D8
:102B2000DAFF000EDB8E1200000E3D6E12000E6EFC
:102B300009A405D0000E016E0E506EEC14F009A22F
:102B400005D0010E016E0E506EEC14F00E50010D0A
:102B5000530E0A6E0F0E0B6EF3500A26F4500B2222
:102B60000AC00CF00BC00DF00CC0D9FF0DC0DAFF8D
:102B700009C0DFFF12000F0153A11CD0800E37C027
:102B8000D9FF38C0DAFFDF6213D0840E68C0D9FFE6
:102B900069C0DAFFDF620CD037C0D9FF38C0DAFF76
:102BA0000C0EDF6E37C0D9FF38C0DAFF000EDB8EA7
:102BB0000F015391629A120004C00AF003C009F099
:102BC00002C008F001C007F00ED009C0D9FF0AC04A
:102BD000DAFF07C0E1FF08C0E2FFDFCFE7FF094AE5
:102BE0000A2A074A082A0506D8A006060528D8B4E6
:102BF0000628D8B41200E9D70001816F12D0939E45
:102C00008A8E010E1BEC16F0020E1BEC16F0010E64
:102C1000CDEC17F0000E92EC17F00A0EACEC17F0AA
:102C2000120000018151000AD8B4E9D7010AD8B4D2
:102C30001200030A12000001806F08D09490120065
:102C40009492120094941200949612000001805104
:102C5000000AD8B41200010AD8B4F0D7030AD8B4D5
:102C6000EFD7010AD8B4EED7070AD8A41200ECD7E0
:102C70000001806F08D08B7012008B7212008B7471
:102C800012008B76120000018051000AD8B41200A5
:102C9000010AD8B4F0D7030AD8B4EFD7010AD8B4E0
:102CA000EED7070AD8A41200ECD7026E12D0939E7A
:102CB0008A8E010EABEC16F0020EABEC16F0010E94
:102CC000DEEC17F0000EB8EC17F00A0EC3EC17F0AC
:102CD00012000250000AD8B4EAD7010AD8B4120090
:102CE000030A1200000E0001716F000E0001706FE8
:102CF0001E0E096E010E97EC15F0000E016E02011A
:102D0000020E036E0201600E026E400E046E010E92
:102D1000FEEC0EF001C072F002C073F01200000170
:102D200081C087F0000180C086F00AD086C0D9FF3C
:102D300087C0DAFF000182C0DFFF0001864B872BCE
:102D400000018407D8A0850700018429D8B485290B
:102D5000D8B41200EBD7016E08D094901200949270
:102D6000120094941200949612000150000AD8B4F4
:102D70001200010AD8B4F1D7030AD8B4F0D7010A77
:102D8000D8B4EFD7070AD8A41200EDD7016E08D047
:102D90008B8012008B8212008B8412008B861200B3
:102DA0000150000AD8B41200010AD8B4F1D7030ABE
:102DB000D8B4F0D7010AD8B4EFD7070AD8A41200C4
:102DC000EDD7016E08D08B9012008B9212008B947D
:102DD00012008B9612000150000AD8B41200010AAA
:102DE000D8B4F1D7030AD8B4F0D7010AD8B4EFD7D2
:102DF000070AD8A41200EDD7000179671200000E6F
:102E0000646E000E606E160E616E9F0E0F015B6F9A
:102E10007B0E606ED08EA284A084F28E01D0648678
:102E200064A6FDD7010E0001796F1200000E3F6EFF
:102E3000000E106E740E0F6E000E126E000E116EEC
:102E4000000E146E000E136EFDEC14F0649260948C
:102E500001D0629462B4FDD7000E466E1200608409
:102E600062986482010E3F6E000E466E000E106E78
:102E7000750E0F6E000E126E000E116E000E146EA7
:102E8000000E136EFDEC14F0120002C008F001C039
:102E900007F008D007C0D9FF08C0DAFF03C0DFFF82
:102EA000074A082A0506D8A006060528D8B4062829
:102EB000D8B41200EFD70001806F08D080B602D0DE
:102EC000010E1200000E1200000E120000018051CF
:102ED000000AD8B4F9D7010AD8B4F0D7000E12000E
:102EE00000EE60F0200EEE6AE806FDE100EE31F043
:102EF0001E0EEE6AE806FDE1000EF86E000181EF9D
:102F000017F0000EFCEC15F04FEC0AF0FCEC16F09C
:102F1000D0EC0BF000017851D8B4FAD7D6EC17F00A
:102F2000FF00F6D70001806F000180671200290EB4
:102F3000C26E000EC16E3E0EC06EC08E1200010E3B
:102F40003126000E3222332234223F661200462AF6
:102F500046661200466812000001806F03D0938815
:102F60007F841200000180510A0AD8A41200F7D70A
:102F7000016E01661200290EC26E000EC16E3E0E79
:102F8000C06EC08E1200016E03D093887F84120041
:102F900001500A0AD8A41200F8D70001806F00017E
:102FA0008051000AD8B41200010A1200000E646EAB
:102FB000000E606E000E0001796F1200016E01506C
:0A2FC000000AD8B41200010A120042
:020000040030CA
:0E0000000032011EFF0081FF03C003E0034039
:00000001FF
